:10114600576946695F6E616D6500576946695F70EC
:10115600617373776F726400382E3135352E3434EF
:0A1166002E313732003230323500EE
:1011F500024E0000022C0000C100012A00012B0054
:03000B000210A937
:1010A900C0E0C0D075D000C006758CFC758A660595
:1010B9004FE54F7002054E052DE52D7002052CAE4A
:1010C9002CC39460EE94EA4008752C00752D00D26B
:0810D90000D006D0D0D0E032B7
:10123800E58954F04401F589758CFC758A66D2A954
:05124800D28CD2AF22A0
:100B11001211DB1212387FD07E07800912111840A2
:100B2100097FE87E0312122280F212117040097FC0
:100B3100D07E0712122280F23000FDC200D201AD38
:100B41002AAF2B12106F1210E1E47B047A04F9F83A
:100B510012094C8F248E238D228C21120CAF8B25F0
:100B61008A268927C201AD2AAF2B12106FAB25AAA5
:100B710026A9271208ADC3E5F064809480406B90EC
:100B810000021208D8C3E5F064809480405C12082A
:100B9100AD85F050F5519000021208D885F028F586
:100BA10029E52B75F00AA47C00252AFDEC35F0FC23
:100BB1007B007A00792E85505785515885285985B3
:100BC100295A85245E85235D85225C85215B120A75
:100BD100027B007A00792E120F88400E121170509C
:100BE100097B007A00792E120F88052AE52A64080C
:100BF1006003020B39F52A052BE52B640360030220
:070C01000B39F52B020B3942
:101170007555FF7556117557507BFF7A11794612D8
:101180000ECA4001227555FF75561175576B7BFFCE
:081190007A11795E120F292289
:10106F00AE057401A806088002C333D8FCFEEF1446
:10107F00601214601A24027020EE300103428022A5
:10108F00F4528022EE300103429022F4529022EE6D
:09109F0030010342A022F452A02A
:0110A8002225
:090D4700AB5FAA60A961E4FCFDA8
:0E0D50008B628A6389648F688E678D668C65FE
:100D5E00E4F573E47B0AFAF9F8AF68AE67AD66ACFA
:100D6E006512094CEB2430FFAE73057374692EF8CF
:100D7E00A607AF68AE67AD66AC65E47B0AFAF9F814
:100D8E0012094C8F688E678D668C65E4FFFEFDFC44
:100D9E00AB68AA67A966A865C31209DE70B5E573CC
:100DAE00D39400401D157374692573F8E6FFAB628A
:100DBE000564E564AA637002056314F9EF12084630
:080DCE0080DCAB62AA63A9649A
:010DD60022FA
:040A02008C558D562C
:100A06008B5F8A6089610561E5617002056014F992
:100A1600744D120846AB5F0561E561AA6070020578
:100A26006014F97465120846AB5F0561E561AA605A
:100A36007002056014F97464120846AE55AF567C10
:100A4600007D0A120858EF2430FFAB5F0561E561AF
:100A5600AA607002056014F9EF120846AE55AF564B
:100A66007C007D0A120858ED2430FFAB5F0561E576
:100A760061AA607002056014F9EF120846AB5F05C3
:100A860061E561AA607002056014F9742F120846C8
:100A9600AE57AF58120D478B5F8A6089610561E5D5
:100AA600617002056014F9742F120846AE59AF5AE8
:100AB600120D478B5F8A6089610561E561700205E9
:100AC6006014F9742F120846AB5FAA60A961AF5E85
:100AD600AE5DAD5CAC5B120D508B5F8A60896105C3
:100AE60061E5617002056014F9740D120846AB5F8A
:100AF6000561E561AA607002056014F9740A1208BE
:0B0B060046AB5FAA60A961E40208464C
:1010E1007F007E007D007C00E4FBC2B420B2FDE401
:1010F100FBD2B478011209EFC2B430B20DEF240172
:10110100FFE43EFEE43DFDE43CFC0BBB18E3D2B43E
:06111100ED6480FDC2B494
:0111170022B5
:061205000408FFFFFFFFDB
:0B126E00E4FEEEC39F5004000E80F76A
:011279002252
:0511BD00C201755A6437
:1011C200A2B3300101B3400FAF5A155AEF7001229A
:0911D2007F0112126E80E9D322A4
:06102D008B578A58895917
:10103300E4FDFC1211BD400122E4FB30B311AF0308
:101043000BEFC394644001227F0112126E80ECED1A
:1010530025E0FDEBD3941E40034305010CBC08D3EC
:0B106300AB57AA58A959ED120846D35C
:01106E00225F
:100CAF0074FFF508F509F50AF50BC2B37F147E0042
:100CBF00121222D2B37F1E12126ED201755A641213
:100CCF0011C24002806B1211BD40028064D20175C7
:100CDF005A641211C2400280587B007A0079521276
:100CEF00102D4002804B7B007A00795312102D405B
:100CFF0002803E7B007A00795412102D4002803121
:100D0F007B007A00795512102D400280247B007AE7
:100D1F0000795612102D40028017E55225532554A5
:100D2F002555B5560C750800855209750A0085546E
:070D3F000B7B007A0079082C
:010D4600228A
:100E63000D0A004154004F4B0041542B43574A4154
:100E7300503D2200222C2200220D0A0057494649E8
:100E830020474F542049500041542B434950535459
:100E93004152543D22544350222C2200222C004123
:100EA3004C524541445920434F4E4E4543544544CB
:100EB3000041542B43495053454E443D003E00539B
:070EC300454E44204F4B0097
:10124D00A2AFE433C2AFAB4FAA4E24FF92AFAE02B2
:02125D00AF03DD
:01125F00226C
:060C08007BFF7A0E796902
:060C0E008B598A5A895B34
:100C1400E4F561FC12124D8E628F6312124DC3EF24
:100C24009563FFEE9562FEC3EF9560EE955F507994
:100C34003098E8C298AD99AB59AA5AA95B856182EC
:100C4400758300120819B5050F05618561827583E6
:100C5400001208197016D322AB59AA5AA95B1208BC
:100C640000B505047F0180027F008F61AB5CAA5D43
:100C7400A95EAE02AF01EF4E60A18C8275830012B3
:100C84000819B5050D0C8C82758300120819708B38
:100C9400D322AB5CAA5DA95E120800B505047F01EE
:0A0CA40080027F00AC07020C1FC3A2
:010CAE002223
:06120C007BFF7D887C13CE
:10121200755C00755D00755E008C5F8D60020C0E62
:0E126000C2981211987BFF7A0E7963021198E2
:10111800E4F5527BFF7A0E79661212607BFF7A0E35
:1011280079697DD07C071212125001227F2C7E0132
:0D1138001212220552E552C3940340D7C3A2
:011145002287
:060ECA008B528A5389548B
:100ED000E4F558C2987BFF7A0E796C121198AB52E8
:100EE000AA53A9541211987BFF7A0E7977121198A0
:100EF000AB55AA56A9571211987BFF7A0E797B122F
:100F00001198755CFF755D0E755E7F755F4E75603F
:100F100020120C085001227FF47E01121222055883
:080F2000E558C3940340ACC383
:010F280022A6
:060F29008B528A5389542B
:100F2F00E4F558C2987BFF7A0E798B121198AB5269
:100F3F00AA53A9541211987BFF7A0E799F12119818
:100F4F00AB55AA56A9571211987BFF7A0E796312E7
:100F5F001198755CFF755D0E755EA2755F277560E4
:100F6F0010120C085001227FF47E01121222055834
:080F7F00E558C3940340ACC324
:010F87002247
:040FE400AB07AA06A7
:100FE800E4F55C7C007D0AAF03AE02120858ED24DC
:100FF80030FFAE5C055C74572EF8A6077C007D0AAE
:10100800AF03AE02120858AA06AB07EB4A70D4E544
:101018005CD39400400E155C7457255CF8E6FF120B
:04102800127A80EBCD
:01102C0022A1
:060F88008B528A538954CC
:100F8E00E4F555F556AB52AA53A9548556828555AC
:100F9E0083120819600A0556E55670E9055580E575
:100FAE00C2987BFF7A0E79B4121198AF56AE5512D5
:100FBE000FE47BFF7A0E79631211987A0E79C012C4
:100FCE00120C400122AB52AA53A9541211987A0E58
:050FDE0079C212120CA3
:010FE30022EB
:1011DB00E589540F4420F589758DFD758BFDD28EF5
:0A11EB00759850C298C299C2AC2258
:08127A008F993099FDC2992201
:101198008B598A5A895BAB59AA5AA95B1208006015
:1011A80013055BE55B7002055A14F9120800FF127B
:0511B800127A80E22222
:10122200EF1FAC0670011E4C600B007D027CC7DC18
:05123200FEDDFC80EB75
:011237002294
:03000000020DD717
:0C0DD700787FE4F6D8FD758173020E1ED3
:10080000BB010689828A83E0225002E722BBFE02F6
:09081000E32289828A83E4932229
:10081900BB010CE58229F582E5833AF583E0225094
:1008290006E92582F8E622BBFE06E92582F8E222DE
:0D083900E58229F582E5833AF583E49322F8
:10084600BB010689828A83F0225002F722BBFE0191
:02085600F3228B
:10085800BC000BBE0029EF8DF084FFADF022E4CC84
:10086800F875F008EF2FFFEE33FEEC33FCEE9DEC4D
:10087800984005FCEE9DFE0FD5F0E9E4CEFD22ED93
:10088800F8F5F0EE8420D21CFEADF075F008EF2FDD
:10089800FFED33FD4007985006D5F0F222C398FDCE
:0508A8000FD5F0EA226B
:1008AD00BB010A89828A83E0F5F0A3E02250068716
:1008BD00F009E71922BBFE07E3F5F009E3192289D8
:0B08CD00828A83E493F5F0740193220B
:1008D800BB0110E58229F582E5833AF583E0F5F05E
:1008E800A3E0225009E92582F886F008E622BBFE3B
:1008F8000AE92582F8E2F5F008E222E5832AF58381
:08090800E993F5F0A3E9932245
:1009100075F008758200EF2FFFEE33FECD33CDCC9E
:1009200033CCC58233C5829BED9AEC99E582984021
:100930000CF582EE9BFEED9AFDEC99FC0FD5F0D6FE
:10094000E4CEFBE4CDFAE4CCF9A88222B800C1B928
:100950000059BA002DEC8BF084CFCECDFCE5F0CB66
:10096000F97818EF2FFFEE33FEED33FDEC33FCEB9F
:1009700033FB10D703994004EB99FB0FD8E5E4F95A
:10098000FA227818EF2FFFEE33FEED33FDEC33FC47
:10099000C933C910D7059BE99A4007EC9BFCE99A3B
:1009A000F90FD8E0E4C9FAE4CCFB2275F010EF2F80
:1009B000FFEE33FEED33FDCC33CCC833C810D70780
:1009C0009BEC9AE899400AED9BFDEC9AFCE899F8BB
:0E09D0000FD5F0DAE4CDFBE4CCFAE4C8F9224E
:1009DE00EB9FF5F0EA9E42F0E99D42F0E89C45F06F
:0109EE0022E6
:1009EF00E8600FEFC333FFEE33FEED33FDEC33FC66
:0309FF00D8F1220A
:100DE300020B11E493A3F8E493A34003F68001F20A
:100DF30008DFF48029E493A3F85407240CC8C33311
:100E0300C4540F4420C8834004F456800146F6DFDF
:100E1300E4800B01020408102040809011F5E47E69
:100E2300019360BCA3FF543F30E509541FFEE493D4
:100E3300A360010ECF54C025E060A840B8E493A39B
:100E4300FAE493A3F8E493A3C8C582C8CAC583CAC6
:100E5300F0A3C8C582C8CAC583CADFE9DEE780BE7E
:01120B0000E2
:00000001FF
